:020000040000fa
:10000000f0ff03200920000067290000472b0000b3
:100010008f300000eb3000003f3100000000000096
:100020000000000000000000000000002328000085
:10003000e72d000000000000232800006d320000c2
:100040002328000023280000232800002328000084
:100050002328000023280000232800002328000074
:100060002328000023280000232800002328000064
:100070002328000023280000232800002328000054
:100080002328000023280000232800002328000044
:100090002328000023280000232800002328000034
:1000a0002328000023280000232800002328000024
:1000b0002328000023280000232800002328000014
:1000c0002328000023280000232800002328000004
:1000d00023280000232800002328000023280000f4
:1000e000232800002328000000000000000000007a
:1000f000000000002328000023280000232800001f
:1001000023280000232800002328000023280000c3
:1001100023280000232800002328000023280000b3
:1001200023280000232800002328000023280000a3
:10013000232800002328000061260000612600001b
:10014000612600006126000023280000232800000b
:100150002328000023280000000000000000000009
:10016000000000000000000000000000000000008f
:1001700000000000000000002328000023280000e9
:100180002328000023280000232800002328000043
:10019000000000002328000023280000232800007e
:1001a0002328000023280000232800002328000023
:1001b0002328000023280000232800002328000013
:1001c0002328000023280000232800002328000003
:1001d00023280000232800002328000023280000f3
:1001e00023280000232800002328000023280000e3
:1001f00023280000232800002328000023280000d3
:100200002328000000000000000000002328000058
:1002100023280000232800002328000023280000b2
:1002200023280000232800002328000023280000a2
:100230002328000023280000232800002328000092
:100240002328000023280000232800002328000082
:100250002328000023280000232800002328000072
:020000040000fa
:10026000f8b500bff8bc08bc9e467047ad2a000038
:10027000f8b500bff8bc08bc9e467047892a00004c
:020000040000fa
:08028000880c000001000000e1
:020000040000fa
:100288002de9f04f2ded028bd2e9008997b0cde929
:100298000c138b6808930b690f90d1e900b614937f
:1002a800cd68002200234046494602f015fd40b9ba
:1002b8001bf0040f32d11bf00803059330d0202324
:1002c80003e089f0004399462d232b70089b03f126
:1002d800ff3a012305934c4929f0004300208b4243
:1002e80008bf80451fd10d9b413b192b059b94bf2f
:1002f800464947492b44184603f00af8284602f0b5
:1003080027ffcdf800b00246089b0f98294601f058
:10031800bbfe17b0bdec028bbde8f08f2b23d4e7f2
:10032800ddf820a0d7e7994208bf404509d20d9bc8
:10033800413b192b059b94bf364937492b44184636
:10034800dae7002200234046494602f02ffd9fede0
:100358002c7b8ded027b48b300240d9802f0b1ff91
:10036800002ec3b20993c0f2d781672b5ad1002e51
:1003780008bf0126231d02dbb442c0f2c6816527ef
:1003880061e09ded067b8ded027b01340022234b5d
:10039800dde9020101f0f6fa42464b46cde90601d5
:1003a80002f07efc0028ecd000271fe00446ede7b1
:1003b80014f5967f11da87b90022194b4046494651
:1003c80001f0e0fa002280468946154bdde902017a
:1003d80001f0d8facde902010127dde90201002286
:1003e8000e4b01f00af8cde90201013cdde90223d8
:1003f8004046494602f070fc0028d9d1ade700bf5d
:10040800000000000000f03f0000f07fac32000068
:10041800b0320000b4320000b832000000002440be
:1004280000005043099f662f06f101060bd1002cee
:1004380004da9fedbd7b8ded027b0024099b672bc1
:1004480018bf361966279ded027bcde906898ded2b
:100458000a7b00230e93dde90a23dde9060100f09b
:10046800ccff41ec100b01f02ffc51ec100bb0ee5f
:10047800408af0ee608a02f099fab0ee480af0ee8f
:10048800680a069b1093079b159083f0004311930d
:100498009ded0a1b9ded102b02f018fd53ec102b5f
:1004a80083f000430793dde90a01a34b8ded060aab
:1004b800002200f0a2ff0e9b01339e42cde90a0103
:1004c8000e93c8d100229d4b01f05cfacde90a01d8
:1004d80002460b46dde9060102f0fefb002840f06b
:1004e8008180dde90a23dde9060102f05ffc10b135
:1004f800159bda0776d5dde90a234046494600f020
:100508005dfe0022cde906018b4bdde9020101f019
:1005180039fadde90623cde90a0102f06bfb002870
:1005280065d0662f04f1010465d10136a146a9eb17
:1005380006034ff00008059e1093cdf80880109b25
:10054800994540f08180029b002b00f0c880a819d3
:100558000022652f027029d1149b1499013b944203
:10056800ea54c1f1030ebcbf644201220a21002ce7
:1005780040f0bc800eeb030cbcf1000f00f3b6801a
:10058800002a03f1ff3114bf2d222b226a540d9a41
:10059800023b413a192a05eb030198bf45279e42c1
:1005a8000f70aaf1020a01da02f0b2fe0bf003039f
:1005b800022b7ff4a3aebaf1000f7ff79fae284657
:1005c80002f0c6fd05eb0a03059a824240f39980c2
:1005d800059b2b4418465246302102f013fe002397
:1005e80008938be69fed527b8ded0a7b83e79dedab
:1005f800027b8ded0a7b652f14bfa1464ff00009e1
:1006080095e7029a52b9b9f1000f07da0e992e222e
:100618006a54012201360af1ff3a029205eb0801f9
:10062800aa193144302001e002f8010b9142fbd1b4
:1006380008eb06023033aaeb080808f1ff3a561c0b
:10064800ab544ff0000828e00c9b0e961b69053b45
:10065800b3427ff678afdde90a23dde9060100f051
:10066800ccfe41ec100b01f02ffb51ec100bb0ee5f
:10067800408af0ee608a02f099f90bf0100209281e
:100688000346a8bf09230243bbd1099a672ab8d1f8
:10069800b9f1000fc2da08f10108069b1293079b13
:1006a800b0ee480af0ee680a83f0004313939ded1c
:1006b8000a1b9ded122b02f009fc53ec102b83f062
:1006c80000430793dde90a0100221b4b8ded060a62
:1006d80000f093fe09f1ff39cde90a012fe71bf07d
:1006e800100f1ebf2e23ab55013630e7b4fbf1fccb
:1006f800013b01fb1c443034ec540af1ff3a6446d8
:1007080035e72a5c1a5401385ee7002cbff69aae2a
:10071800662788e606262de6099b672bfad01f4632
:10072800062680e6aff30080000000000000f03fde
:1007380000000000000000000000244000001440f9
:020000040000fa
:100748002de9f04f95b0cde912030b68089392edaf
:10075800007b4b680a938b6809930b690d93cc68ef
:100768000022002351ec170b8ded047b02f0b4fa44
:1007780040b9089b580734d4089b13f0080732d0b7
:10078800202306e0dde9042181f00043cde90423bc
:100798002d232370099b01275a1edde90403dff886
:1007a800f8b223f000414ff0000a594508bf504500
:1007b8001bd1139b413b192b04eb070094bfb04995
:1007c800b04902f0a5fdaf4802f0c2fc089b0093b7
:1007d8000246099b1298214601f056fc15b0bde867
:1007e800f08f2b23d5e7099ad7e7139b8b45a3f105
:1007f800410308bf82450b9309d2192b04eb07006c
:1008080094bfa149a14902f083fda048dce730214b
:10081800e1550b997b1c1a2934bf58217821e154e2
:10082800931e079300220023dde90401023702f03a
:10083800bdfa002800f07b819fed8f7b8ded027b58
:1008480000250a9bdde90289002bdde904abb8bf6e
:1008580018230e93002642464b465046594600f050
:10086800ccfd41ec100b01f02ffa42464b4651ecff
:10087800100b8ded100b01f085f802460b46504623
:10088800594602f067fd824b82468b4640464946f0
:10089800002201f077f8731c0c930a9b002b80460a
:1008a800894606da002200235046594602f07efaad
:1008b80028b90e9bb34200f3408101330c93002208
:1008c800744b4046494601f05df880468946024629
:1008d8000b465046594602f0fff9002840f02f8198
:1008e80042464b465046594602f060fa30b1dde9bf
:1008f800100102f05bf8c10740f1218142464b46e6
:10090800dde9040100f05afccde90401dde9042128
:1009180021f00043604900208b4208bf82423ff427
:1009280048af4ff000083e46c246c1460d9b053b06
:10093800b342b34633d9dde90223dde9040100f00f
:100948005cfd41ec100b01f0bff951ec100b8ded83
:100958000e0b02f02bf8002840f0f680b9f1000fda
:1009680000f0f28008f10108dde90223dde90e015b
:1009780001f008f802460b46dde9040102f0eafc42
:10098800434bcde904010022dde9020100f0faff42
:100998000c9b09f101094b45cde90201c6d1baf119
:1009a800000f1ed1b8f1000f00f015810a9b002b33
:1009b80040f31181089bda0700f10d81a3192e225b
:1009c8001a7008eb06022244302100bf03f8011f09
:1009d8009a42fbd1079b46446fea08084344013614
:1009e80007930d9b0d990022a019013b95420270b7
:1009f800b8bf6d42e254c1f1020eb8bf01224ff0f8
:100a08000a08002d40f0d7800eeb030cbcf1010f53
:100a180000f0d180002a03f1ff3114bf2d222b22d0
:100a280062540b9a023b1a2a04eb030134bf50228a
:100a380070229e420a7001da02f06afc089b03f0f9
:100a48000303022b14d1079ba3f10208b8f1000f8e
:100a58000edd204602f07cfb04eb0803b84280f26e
:100a6800b68042463021e01902f0ccfb00230993fe
:100a78002046a9e6aff30080000000000000f03f28
:100a88009c320000a0320000a4320000a83200000e
:100a98000000b03f000020400000f07fcde902894f
:100aa8000135dde902231046194600f087fb804630
:100ab800894602460b46dde9040102f00df90028db
:100ac800ecd0dff82cb1dff82c914ff0000a4ff092
:100ad8000008dde90223dde9040102f0fdf8002841
:100ae8003ff4afae52465b46dde9020100f04aff33
:100af8000022002302f05af978b142464b46dde95c
:100b0800020100f03fff4246cde902014b46dde914
:100b1800040100f037ffcde90401dde90201524686
:100b28005b4600f02fff013dcde90201d1e79fedc3
:100b38002e7b05468ded027bb3e70c9e8be64ff0ce
:100b480000084ff00009d9e6baf1000f0bd1b9f14e
:100b5800000f08d02e2304f80b30079b013b013609
:100b680007934ff0010a04eb0803a219334430211c
:100b780002e000bf02f8011b9a42fbd1079b06eb7b
:100b8800080ba3eb08080b9b0928d4bf303057305b
:100b9800192b06d840f02003613b192b01d802f02d
:100ba80097fb08f1ff330bf1010604f80b000793dc
:100bb8004ff00008d8e60799b5fbf8fc013b08fba5
:100bc8001c5530350139e5540791654619e7225c13
:100bd8001a54013842e7089bdb067ff502af2e2343
:100be800a3550136fde600bf000000000000f03ffd
:080bf8000000e03f0000504343
:020000040000fa
:100c00002de9f041aeb0064615460591002705993d
:100c10000b78002b00f0fa8000244ff0ff33cde971
:100c200009430eab0c9380230b940d930b5d0bb11a
:100c3000252b26d134b12246304601f0a3ff059b77
:100c400023440593059b1a78252a40f0d78003f1a9
:100c50000108cdf81480059803782b2b1ad025d8dd
:100c6000202b1bd0232b1dd02a2b27d001f0c7fe11
:100c70000b90059b1a78303a092a2ed80133059338
:100c8000f7e70134d2e7099b43f0010301300993f0
:100c90000590e0e7099b43f00403f7e7099b43f065
:100ca0000803f3e7099b43f01003efe72d2bead08d
:100cb000302bd9d1099b43f00203e7e72b681a1dbb
:100cc0001b682a600130002b05900b9305da099a06
:100cd0005b4282f0010209920b93099bda0744bf41
:100ce00023f002030993059b1a782e2a0dd10022c6
:100cf000581c0a9205905a782a2a25d10233059366
:100d00002b681a1d1b682a600a9305a801f058ff7a
:100d1000059b0390187802f0d8fa6928039979d0d6
:100d200032dc632800f0cb8019dc252800f0d98064
:100d3000612853d000234ff0ff32cdf8148009937f
:100d40000b930a920093d4e001f059fe0a90059ba0
:100d50001a78303a092ad8d801330593f7e764287e
:100d600058d06728e6dc2a4606a802f009f90028d0
:100d700000f0a180059b5a1c05921b7806aa09a9c0
:100d80003046fff781fa38e0702873d015dc6e2802
:100d900000f08c806f28cdd12b46002206a800f0f1
:100da000fdff002800f08780059b06aa013309a9f2
:100db0003046059301f01ffb1fe075283ad07828d4
:100dc00048d07328b6d1802975d1059b2a68013394
:100dd0000593131d2b60126800237de02a4606a8a8
:100de00002f0cef8002866d0059b5a1c05921b78ad
:100df00006aa09a93046fff7a7fc04443c44a742d1
:100e00007add3e4b4f221a604ff0ff3738462eb046
:100e1000bde8f0812b46012206a800f0bfff0028a4
:100e200049d0059b06aa013309a93046059301f074
:100e30000bf8e2e72b46002206a800f0afff0028df
:100e400039d0059b06aa013309a93046059301f064
:100e5000bdfcd2e72b46002206a800f09fff50b34e
:100e6000059b5a1c05921b7806aa09a9304600f07a
:100e700025fec2e72b460022f02106a800f08effd7
:100e8000c8b1059b01330593dde9062313430bd15c
:100e90001b4802f061f9099b009319490b9b02461c
:100ea000304601f0f5f8a8e77823dde72b463a193c
:100eb00006a801f0aff9059b013305939ee7802951
:100ec000f9d1059b013305932b681a1d1b682a6015
:100ed0008df8183006aa012309a9304601f04afc12
:100ee0008be78029e7d1059b01330593099b00938c
:100ef0000b9b04490122d3e7274688e68c05002096
:080f00004c33000052330000e5
:020000040000fa
:100f08002de9f04f099f154604468e461e46002bd4
:100f180040f0cc808a42b2fa82fc4cd9bcf1000f76
:100f28000bd0ccf1200801fa0cfe20fa08f802fade
:100f38000cf548ea0e0e00fa0cf44fea15491ffab0
:100f480085f8befbf9fa210c09fb1ae30afb08fb3a
:100f580041ea03439b452ad9eb180af1ff3004d232
:100f68009b4502d9aaf102002b44a3eb0b03a4b2c0
:100f7800b3fbf9f209fb123302fb08f844ea034415
:100f8800a04516d92c1902f1ff3303d2a04501d987
:100f9800931e2c44a4eb080443ea004027b124fa2a
:100fa8000cf400233c607b603146bde8f08f50466e
:100fb800dbe71346eee702b9ffdebcf1000f2ed1e6
:100fc8008b1a01264fea154eaab2b3fbfef8210c84
:100fd8000efb183308fb02f941ea0343994561d92e
:100fe800eb1808f1ff3004d2994502d9a8f10200a4
:100ff8002b44a3eb0903a4b2b3fbfef10efb1133a0
:101008004a4344ea0344a2424ed92c1901f1ff3362
:1010180003d2a24201d98b1e2c44a41abce7ccf1fe
:10102800200e02fa0cf521fa0ef901fa0cf320fa57
:101038000efe4eea03034fea154800fa0cf4b9fb1a
:10104800f8f11ffa85fe08fb1192180c01fb0ef649
:1010580040ea0242964221d9aa1801f1ff3003d290
:10106800964201d9881e2a44921b9bb2b2fbf8f91a
:1010780008fb192209fb0efe43ea02439e450fd9dd
:10108800eb1809f1ff3604d29e4502d9a9f10206f0
:101098002b44a3eb0e0346ea004693e70846e3e732
:1010a8004e46f6e74046a4e70b46b6e78b4206d91c
:1010b800002f7ed00026c7e90001304674e7b3fa56
:1010c80083fcbcf1000f0fd18b4201d3824209d8b7
:1010d800841a61eb030e0120002f6dd0c7e9004e82
:1010e800002661e76046f7e7ccf1200e03fa0cf31f
:1010f80022fa0ef521fa0ef41d4301fa0cf320fa38
:101108000ef10b434fea154a00fa0cf6b4fbfaf954
:101118001ffa85f80afb19401c0c09fb08f144ea80
:101128000044a14202fa0cf23fd92c1909f1ff3010
:1011380004d2a14202d9a9f102002c44641a9bb23c
:10114800b4fbfaf90afb194409fb08f843ea04411d
:1011580088452cd9691809f1ff3304d2884502d98a
:10116800a9f10203294443ea0040a1eb0801a0fbce
:1011780002894945c2464c4602d306d1464504d2a7
:10118800b8eb020a69eb05040138afb1b6eb0a0304
:1011980061eb040606fa0efe23fa0cf34eea03038b
:1011a80026fa0cf6c7e900369ae74846c6e74b46e2
:0c11b800d9e73e463846f7e63e46f5e62d
:020000040000fa
:1011c40030b591ea030f00f18280841a71eb030cad
:1011d40005d2121953eb0c03001b71eb0c0140f206
:1011e400000ccff6e07c1cea430f52d0bceb410f5d
:1011f4005fd90c0da4eb135e5ff0010c6cf31f516f
:101204006cf31f53def1200c2ad303fa0cf54019ba
:1012140041f1000122fa0ef5401923fa0ef5694155
:1012240012fa0cf2cd0208d349085fea30005feaf3
:10123400320228bf42f001020134013c5fea500c43
:1012440072f1004250f1000051eb04514ff40013cd
:1012540013eb410f38bf30bd6ff31301002030bdd5
:10126400bef1200ebef1200f1ed223fa0ef5401956
:1012740041f10001cef1200c124218bf012203fa01
:101284000cf52a43cee711ea5c0f04bf00200021cd
:1012940030bd1cea410f04bf01f00041002030bd05
:1012a40001f00041002030bd21f4801101eb045114
:1012b40030bd004218bf41f00101bceb410f08bf33
:1012c40030bd4ff0fe4141f47801002030bd83f081
:1012d4000043841a71eb030e07d28ef0004e001bfc
:1012e40071eb0e01121953eb0e0340f2000ccff612
:1012f400e07c1cea430fc6d0bceb410f72d90c0d45
:10130400a4eb135ec90241ea5051c00241f000410e
:10131400db0243ea5253d20243f00043def1200cd5
:1013240041d312fa0cf522fa0ef203fa0cf542ea52
:10133400050218bf42f0010223fa0ef3801a994104
:10134400e30ac4f30a0411f0404f03d418d0013c5b
:1013540040004941013c23d44205c00a40ea4150bf
:10136400c90a51eac3715fea500c72f1004250f1ac
:10137400000051eb045130bd01002fd00020203c6f
:101384000029f9d0b1fa81fcdcf1200e11fa0cf13c
:1013940030fa0ef510fa0cf02943a4eb0c04d9e74b
:1013a4000020d90730bdaef1200ebef1200f0dd2c2
:1013b400cef1200c03fa0cf533fa0ef32a4318bfce
:1013c40043f00103c01a61f10001b9e721f00041c3
:1013d400c00a40ea4150c90a01eb045130bd002063
:1013e400002130bd004218bf41f00101bceb410fa8
:0e13f4007ff467afbceb430f3ff463af30bd37
:020000040000fa
:10140200f0b581ea030e0ef0004e40f20007cff66f
:10141200e07717ea41051ebf95ea070f17ea430472
:1014220094ea070f00f0c5806d0da5eb545707f540
:1014320080674ff0004646eac12444ea5054c00295
:1014420046eac32343ea5253d202801a9c4104d291
:101452000018644180185c41013f5b084fea320288
:101462000025002140f001004ff0070604e0801a39
:101472009c4136d340416441801a9c4136d340415d
:101482006441801a9c4136d340416441801a9c4198
:1014920036d340416441801a9c4136d34041644175
:1014a200013e17d0801a9c4136d340416441801ad4
:1014b2009c4136d340416441801a9c4136d340411d
:1014c2006441090201eb156190ea052520f0ff0055
:1014d2004540cce7801a9c4156d335e080185c41e8
:1014e200c8d20018644180185c41c8d20018644117
:1014f20080185c41c8d20018644180185c41c8d28f
:101502000018644180185c41c8d200186441013e51
:1015120017d080185c41c8d20018644180185c4121
:10152200c8d20018644180185c41c8d200186441d6
:10153200090201eb156190ea052520f0ff00454004
:10154200cce780185c411fd3420918bf44f0010464
:10155200490101ebd56100f01f0000eb451021f4b9
:10156200801141ea0e01013041f10001244208bf1d
:1015720020f00100b7f5006f3eda013f49dd01ebd3
:101582000751bde8f0407047490101ebd56100f019
:101592001f0000eb451021f4801141ea0e01b7f55e
:1015a200006f29da013f34dd01eb0751bde8f0405d
:1015b2007047004218bf41f00101124218bf43f0c8
:1015c2000103b7eb410f2cbfb7eb430f1ce0b7eba6
:1015d200410f04bfb7eb430f16e017ea410f04bff8
:1015e20017ea430f10e017ea410f12d017ea430f30
:1015f20002d0b7eb430f0cd04ef0fe4141f4700124
:101602000020bde8f04070474ff0fe4141f4780100
:06161200f6e77146f4e763
:020000040000fa
:10161800500500201c000000000000000000002011
:10162800c800000000000000200500203000000075
:1016380000000000800500200400000000000000f9
:10164800800600200f0000000100000041542b43d9
:101658004348414e47453a31340d0000900600207a
:10166800070000000100000041542b454e0d00000a
:1016780098060020050000000100000041545a0da2
:1016880000000000840500200400000000000000a5
:10169800d004002050000000000000009405002045
:1016a8006c00000001000000a00500209c0500203f
:1016b800a00500200000000025000000d000002048
:1016c800000400000000000000000000000000000e
:1016d8000000000000000000000000000000000002
:1016e8000000000079330000000000000000000046
:1016f800000000000000000041250000000000007c
:1017080000000000000000000000000000000000d1
:1017180000000000c80000200804000000000000cd
:101728006006002020000000010000000100000009
:10173800030000000000000000000000000000009e
:101748000000000000000000780500207805002057
:1017580008000000000000008805002008000000c4
:1017680000000000000600206000000001000000ea
:10177800010000000300000000000000000000005d
:101788000000000000000000000000001927000011
:101798000000000000000000000000006d330000a1
:1017a8008733000000000000000000000000000077
:1017b8000000000000000000000000000000000021
:1017c8000000000000000000000000000000000011
:1017d800a006002004000000010000000100000035
:1017e8009005002004000000000000006c050020a7
:1017f8000c000000000000000000000000000000d5
:020000040000fa
:101808002de9f047a2b001f05bf80421534801f03c
:1018180089fd00bf01f08efd0028fbd1022109a837
:1018280001f07cfd01f082fd0028fbd106214c4827
:1018380001f078fd01f07efd0028fbd1022109a806
:1018480001f06cfd01f072fd0028fbd10e21454826
:1018580001f068fd01f06efd0028fbd1022109a806
:1018680001f05cfd01f062fd0028fbd1012109a80f
:1018780001f054fd3c4801f0a9fb3c4b02ac0fcbf6
:1018880007c423803a4b01933224dff8ec804ff4ed
:10189800af77384e01f030fda8fb0023db0907fbca
:1018a800130353b1002cf5dcdff8d0a0dff8d0909b
:1018b80001250df1180847462fe002a801f048fc61
:1018c800014602a801f02efd01f034fd0028fbd1ed
:1018d80001a801f03dfc014601a801f023fd00bf6d
:1018e80001f028fd0028fbd1651e2146304601f095
:1018f800a7fb002dd8dd2c46cce79df824205146c7
:10190800484601f00bfc484601f09afb294609a815
:1019180001f004fd06e001f0c3fa30bf01f006fd56
:101928000028ead02a460a21384600f031fc9df802
:101938001830002befd02946384601f0f3fc444616
:101948000df1210614f8013f002be4d0294620466a
:1019580001f0e8fca642f5d1dde700bf98060020bb
:1019680090060020800600204c2d0000702d0000fd
:1019780068690d00582d000091739f5d6c2d000063
:04198800000000203b
:020000040000fa
:10198c00f0b540f2ff7681ea030c16ea115e1ebf39
:10199c00b64516ea1355b54252d021ea465141f4e8
:1019ac008011a1fb024723ea465343f48013ae4453
:1019bc00a0fb03650cf0004c36197d41a1fb0347dd
:1019cc0047f10003a0fb0217f619654153f1000320
:1019dc00094218bf46f0010640f2fe74b3f5007fd1
:1019ec0013d2aef5806ea64523d24cea0331280300
:1019fc0041ea155140ea16503203450872f1004293
:101a0c0050f1000051eb0e51f0bdaef2ff3ea64579
:101a1c000fd24ceac321e80241ea555140ea565034
:101a2c00f202450872f1004250f1000051eb0e51e8
:101a3c00f0bd1eea0e0f2dd50cf000410020f0bdbc
:101a4c0016ea115f04bf01f000410020004218bfec
:101a5c0041f0010116ea135f04bf03f000430022ba
:101a6c00124218bf43f0010306ea1354b44218bfe4
:101a7c00b64503d00cf000410020f0bd21f0004130
:101a8c0023f00043b1eb065f0cd8b3eb065f09d82b
:101a9c0041b13bb10cf0004141f0fe4141f4700109
:101aac000020f0bd40f20001c7f6f8710020f0bd37
:020000040000fa
:101abc002de9f04f0e4649683568d6f80890f7685e
:101acc008bb0cde903230029acbf25f00205012121
:101adc0015f010030593039b8346d3e900232fd005
:101aec0052ea03002cd0a9f10208346915f0080061
:101afc0004f1ff3408904ff00000385518bf08f17e
:101b0c00ff388a46012c1ddc059b002b54d1089b09
:101b1c0013b1013c20233b5532690095013a4b46e9
:101b2c00121b3919584600f0adfadbf80430db050e
:101b3c0003d573689842b8bf18460bb0bde8f08f58
:101b4c00c846d2e752ea030009d1baf1000f06dc0d
:101b5c00a8eb010050440028d6dda807d4d502f02c
:101b6c000f000928d4bf00f1300e00f1570e049875
:101b7c00a0f1410cbcf1190f04f1ff3410d84ef058
:101b8c00200cacf1610cbcf1190f09d8704609910d
:101b9c00cde9062301f09afbdde906230999864677
:101bac00100940ea03704fea131c07f804e00af12d
:101bbc00ff3a02466346a5e7039bd3e9000150eace
:101bcc000103a4d03a19049b02f8013c023c3023d7
:041bdc003b559ce7f2
:020000040000fa
:101be000334b00221a7403f50063324a9a621a4694
:101bf000536813f0100ffbd12f4b4222c3f88420ff
:101c00001a4600bfd2f8843013f0400ffad02b4ba5
:101c100000229a6377225a631a46d36b13f0040f9b
:101c2000fbd1264b022283f830201a46d36b13f0e7
:101c3000020ffbd1214a136c03f00303032bfad1eb
:101c40001f4b01225a711a46d37813f0010ffbd0b3
:101c5000194b1c4a1a621a46536813f0040ffbd141
:101c6000154b194a5a621a46536813f0080ffbd1f4
:101c7000114b4122c3f808211a4600bfd2f808319f
:101c800013f0400ffad00c4b4122c3f80c211a4636
:101c9000d2f80c3113f0400ffad0094b6ff07f42ad
:101ca0001a6140f2ff725a6103221a62704700bf44
:101cb0000014004006013000001c004000100040ed
:0c1cc000000800400601010007010200be
:020000040000fa
:041ccc00002070473d
:020000040000fa
:101cd00053ec102bc3f30a512de9f04140f2fd7093
:101ce0004e1e86421d4645d8a1f2ff30002835db46
:101cf000332831dc284bc0f120084ff0ff3c03fab9
:101d000008f2a1f21f412cfa00fc10ee104a4cea36
:101d1000020c23fa01f24cea020c23fa00fe04ea58
:101d20000c0605ea0e0724ea0c0256ea070425ea27
:101d30000e030fd0002a73f100040bda4ff4801564
:101d400005fa08f425fa01f10c43121925fa00f0fe
:101d500040eb030343ec102bbde8f081002a73f144
:101d6000000303db9fed080bbde8f0819fed080b3e
:101d7000bde8f0810029efd10a4603f0004343ecaf
:101d8000102be9e7aff30080000000000000000026
:0c1d9000000000000000f0bfffff0f008b
:020000040000fa
:101d9c00882910b536d012dc812943d003dc802988
:101dac0040d0002010bd82290ed08429f9d11968a9
:101dbc0002b30a1d1a60b1f90020d3171ee0a02946
:101dcc002bd00bdc9029ecd11968073121f00701dd
:101ddc0001f108021a60d1e900230fe0c02901d0fb
:101dec00f029ded11a68111d1960136803600023f5
:101dfc00436005e00a1d1a600a880023c0e900232d
:101e0c000120cfe7196822b10a1d1a6091f9002050
:101e1c00d3e70a1d1a600a78efe71a68111d1960da
:101e2c001268cae719681ab10a1d1a600a68c4e771
:0c1e3c000c1d1c600b68c0e90032e1e7df
:020000040000fa
:101e48002de9f041d2e900230c4686b007465fea47
:101e5800d37820684968a5680590e66841d0524261
:101e680063eb4303002908db20f002000590b8f17a
:101e7800000f02d1059948072ad5691e05a80290c6
:101e88000a20cde90010204600f03afab8f1000f18
:101e980002d1059b59071fd5b8f1000f00f1ff309b
:101ea80014bf2d232b2333542269059b0093013a39
:101eb8002b46121a3118384600f0e6f87b68db0525
:101ec80003d563689842b8bf184606b0bde8f081ec
:101ed8000807d2d42946d1e71a07e5d501382023c7
:081ee800e1e70029c0dac5e7bb
:020000040000fa
:101ef00000283bd070b406461f4b1b7d002b37d10a
:101f00001d4b1860596001221a755d684ff08643b9
:101f10001b7e13f0010f1bd0e5b10078e0b1344611
:101f200000224ff086414b6803f00703012b12bfdc
:101f3000886236f812308b6201320b7e13f0010f8b
:101f40000dd095420ad014f8010f0028ebd106e01d
:101f5000002204e02a4602e0002200e02a46064b66
:101f60009a6001204ff08643987502e00020704788
:0c1f7000002070bc704700bf200500205e
:020000040000fa
:101f7c002de9ff41836946690093f61acde90161a9
:101f8c0004461746039216444ff002086d4642462b
:101f9c002946206801f003f8b04209d1d4e9023295
:101fac00c4e905331a44a262384604b0bde8f08196
:101fbc0000280dda6268002342f01002b8f1020f1b
:101fcc00a362c4e90533626015d06b68ff1aebe7b6
:101fdc006b68984288bf0835a6eb000688bfc01a0c
:101fec002b6803442b606b68a3eb000088bf08f1df
:0a1ffc00ff386860cbe71f46d6e708
:020000040000fa
:02200600704721
:020000040000fa
:1020080008b5194b9847194b9847eff3108172b6ea
:10201800174ad2f8883043f47003c2f88830bff307
:102028004f8fbff36f8f01b962b6124a936823f0de
:10203800010393601346da6812f0010ffbd10d4bd0
:1020480024225a6001229a6000f096fe0a4b23f07f
:102058007f03074a9360094b9847094b9847094bf8
:10206800984701f027f9fee75b3200005b32000079
:1020780000ed00e00060004100000000bd26000007
:082088005b3200005b32000036
:020000040000fa
:102090002de9ff471d460c9b13f0010906468a46b1
:1020a000144601d195420bd822465146304600f0e5
:1020b00069fda54204d82546284604b0bde8f0874e
:1020c0002f1b102f3a464ff0200128bf10226846e0
:1020d000b84601f09bf800bfb8f10f0f11d83b09cb
:1020e0006ff00f0202fb03726946304600f04afdb2
:1020f000b9f1000fe0d122465146304600f042fdd2
:10210000dae710226946304600f03cfda8f11008dd
:04211000e2e700bf43
:020000040000fa
:10211400f0b51f4c2568a446002d36d00022294670
:1021240016461346d1f800e00f6986450ad132b14c
:10213400176101f110031846f0bd3946f2e7ccf8f7
:102144000070f6e705d9ebb11c68a6453cbf1646fe
:102154000b460a46002ff0d1002becd019461f691c
:1021640051f8102b121a102a05d918600844103a95
:102174000761026007469d420cbfccf800703761ce
:102184000b46d8e716460b46e3e72b46d3e700bfda
:042194009005002092
:020000040000fa
:10219800002837d0f8b5064615460f4600f020fe51
:1021a800781e2ad00022184c237e13f0040f12d177
:1021b800002df9d0144b5b6803f00703012b4ff097
:1021c800000314bfb35426f812300023b354d01ab6
:1021d80018bf0120f8bd638b13f0070f0cd163689b
:1021e80003f00703012ba36a14bfb35426f8123077
:1021f80001328242d8d100e01046874214bf002045
:0c2208000120e7e70020704700040043bd
:020000040000fa
:10221400842910b523d00cdc812903d0822913d062
:1022240080290bd119680c1d1c600b6803601a60af
:1022340013e0902921d003dc882917d0002010bd99
:10224400a029efd0c029ece719680c1d1c600b68ad
:102254000360d1171046c3e900010120efe71968b4
:102264000c1d1c600b6803601a80f6e719680c1dce
:102274001c600b6803601a70efe719680c1d1c6082
:0c22840009680160d317c1e90023e6e7f8
:020000040000fa
:102290001c4b1b7d002b34d010b51a4a9368516833
:1022a0004ff08642127e12f0010f16d0994214d9d7
:1022b0004ff0864113484a6802f00702012a02687b
:1022c00014bfd25c32f813208a62013344680a7e5c
:1022d00012f0010f01d09c42edd80a4a9360526877
:1022e0009a420dd8074b00221a755a604ff0864269
:1022f00001211175db681bb1024b1869db68984737
:0823000010bd7047200500200c
:020000040000fa
:102308002de9f84f04460c9f6668d4f80cb0246990
:1023180010463a68013c002502f0020a0b9a0bf8b5
:102328000450002e1946b8bf0126012390464feaf3
:10233800e279002c03dcd3b12046bde8f88f50eadf
:10234800010209d1721b002a06dc0a9a521b002ad4
:10235800f1ddbaf1000feed042464b4600f070fdb9
:10236800013c134630320bf804200135e1e73b68a5
:0823780023f010033b60dfe7d6
:020000040000fa
:10238000f8b5846a05460f46164654b1ab6a6a69c9
:102390009b1ab3420bd2324639462846fff7eefd70
:1023a000f8bd00f0e5fe0028f0d02046f8e7002e4a
:1023b000f1d095f93430002b1bdbdbb23446621ec2
:1023c000b95c994212d1224639462846fff7d6fd1c
:1023d000a042e5d32744341b22463946686900f001
:1023e00085fe6b691c446c613046d9e71446002aaf
:0623f000e5d13446f0e7e0
:020000040000fa
:1023f600f0b50c4649682368a768e56887b00029e8
:102406000593a4bf23f00203059305ab02930823ab
:10241600cde900730646d2e900232046fff771ff97
:10242600059bd90642bf00f1ff3030232b54059b94
:102436001a0742bf00f1ff3020232b542269059b67
:102446000093013a3b46121a29183046fff71dfe43
:102456007368db0503d563689842b8bf184607b0b2
:02246600f0bdc7
:020000040000fa
:10246800194bda6822f4e0621204120c42f0bf62df
:1024780042f40032da60bff35f8f62b6134ae0219c
:1024880082f83e134ff08040506082f83f134ff0bf
:102498000040506082f840130120906082f8411398
:1024a800022191605a6a42f480225a625a6942f0c3
:1024b80010025a615a6a42f400325a625a6a42f465
:1024c80080325a62704700bf00ed00e000e100e092
:020000040000fa
:1024d80008b5184b93f82c30d3b1164bda691b6a40
:1024e800934215d2134b986a4ff08642916a1b6a41
:1024f800526802f00702012a0e4a926914bfd154a9
:1025080022f8131001330b4a1362d2699a4200d0a1
:1025180008bd084b002283f82c20da614ff0864270
:10252800842111755b6a002bf2d0024b5b6a9847d5
:08253800eee700bf20050020c2
:020000040000fa
:102540007fb5c36800911546002b18bf013a019270
:1025500082680446cde902230e46022269460068dd
:1025600000f0f9fc002808dc00f0180383f00802f2
:1025700063681343636005460fe0019a8242fad212
:10258000a368e363801ae268184420642ab15a1ce5
:10259000e2632e441b7806f8013c284604b070bd67
:020000040000fa
:1025a000f0b59bb004460d46164600214c2207a804
:1025b0001f4600f02bfe4ff0ff33029303f203138c
:1025c000039304b901accde9044555b16a1e002d51
:1025d000069208da094b4f221a604ff0ff301bb009
:1025e000f0bd2a46f3e71cbf002323703a4631466c
:1025f00002a8cde9074400f087fdf0e78c05002034
:020000040000fa
:1026000037b5154d2b68044673b100f041fd0190bc
:1026100001a800f0dcfd0f30019920f00f0000f060
:10262000bffd60b100232b60002c08bf01240f34d4
:1026300034f00f0405d1094b0c221a60204603b078
:1026400030bd042c38bf04242046fff763fd00286a
:10265000f5d040f8044cf2e7a00600208c050020dd
:020000040000fa
:1026600008b54ff086439b7d0bb34ff08642137e37
:10267000dbb2927d12f0800f1ad14ff08642137eaa
:10268000dbb2927d12f0010f04d013f0010f01d0e4
:10269000fff7fefd4ff08642137edbb2927d12f013
:1026a000040f04d013f0040f01d0fff715ff08bd8d
:0c26b00013f0800fe1d000f0bffadee76d
:020000040000fa
:1026bc000e4a38b5002313600d4a0e4c13600e4ab7
:1026cc000e4d13600e4a13600e4a13600e4a53628d
:1026dc0013610123936000f0d3fd00f0fefdac42ca
:1026ec0000d338bd54f8043b9847f8e78805002020
:1026fc00dc0400206c020000d804002070020000f2
:0c270c00d0040020d4040020e0040020d1
:020000040000fa
:1027180038b50d46044608b9002038bd43689b0605
:1027280007d5d0e905239a4216d80023c4e9053312
:10273800a362d4e90f13994204d20122c91a20686e
:1027480000f01afe0023c4e90f33002de4d02068fe
:10275800bde8384000f009be0022c36a1146984718
:0c2768006369002be1d14ff0ff30d6e791
:020000040000fa
:102774002de9ff41134dd1f80080af88adf80c70fe
:1027840006462868029002aca8798df80e00002a4b
:1027940018bf1446d1e901571a461bb9204600f068
:1027a400d9fc0246002d02dbaa4228bf2a46cdf8f6
:1027b40000803b4621463046fff768fc04b0bde884
:0827c400f08100bf6433000046
:020000040000fa
:1027cc00f0b50c4649682368a668e76887b000290d
:1027dc000593a4bf23f00203059305ab02930a23d0
:1027ec00cde900630546d2e900232046fff786fdbc
:1027fc002269059b0093013a3346121a3918284670
:10280c00fff740fc6b68db0503d563689842b8bfe3
:06281c00184607b0f0bdf4
:020000040000fa
:02282200fee7cf
:020000040000fa
:102824004ff08643114a1a604ff6b1629a814ff411
:1028340040325a601a46d369002bfcd14ff08642cd
:10284400136843f002031360d369002bfcd1084bd7
:1028540000229a61da611a6283f82c205a621a60a3
:102864005a609a601a75da60da857047040110407c
:04287400200500201b
:020000040000fa
:10287800114b012283f8cc2083f8cd2083f8d02097
:1028880083f8d120222283f8b62083f8b8200422c6
:102898009a60802199601021c3f884109a61074bcf
:1028a800013bfdd1044b80225a61044b013bfdd111
:1028b800014b80229a61704700800041a086010088
:020000040000fa
:1028c80008b50e4b4ff480429a609a610c4b022275
:1028d8005a700c4b4bf67f325a600b4ae02182f853
:1028e800231000229a6007221a604ff47a7000f0d1
:1028f80075fc064800f06afb08bd00bf0080004177
:102908000004004010e000e000ed00e0403100006d
:020000040000fa
:1029180013b5836a8df80710044673b16369a26a18
:10292800934212d3e36a01220df10701204698472a
:10293800012806d19df8070005e000f015fc0028e5
:10294800ecd04ff0ff3002b010bd9df8070094f9ad
:0e29580034209042e6d05a1c62611870f3e7fa
:020000040000fa
:02296600fee78a
:020000040000fa
:10296800022a70b5044616461d461ad043689b06cf
:1029780017d441b9002d08bf4ff4806505f1080050
:10298800fff73afe01466368012e43f020036360b7
:10299800c4e9021514bfff230a2384f83430024b1c
:0c29a800e362002070bd00bf812300002e
:020000040000fa
:1029b400c1f30a5340f21e42d21a0edd202a0ad86d
:1029c400cb0243ea505040f00040d04090eae1701e
:1029d400b0ebe1707047002070474b00004218bf15
:1029e40043f0010313f5001f88bf21f0004111f0eb
:0a29f400004058bf6ff0004070472c
:020000040000fa
:1029fe0010b50278202a034600f10100f9d0a2f1a9
:102a0e0009010429f5d92b2a07d02d2a11d101212c
:102a1e000133013b00200a2403e00021f8e7604364
:102a2e00801a13f8012f303a092af8d901b9404219
:062a3e0010bd0021ede7d0
:020000040000fa
:102a4400d0b110b40446c9b1084421460c4a6442ca
:102a5400137e13f0010ffbd0536803f00703012b1f
:102a640014bf0b7834f81130936201318142efd1f5
:102a740001205df8044b7047002070470120f8e7ff
:042a84000004004307
:020000040000fa
:102a880010b5054c227832b9044b13b10448aff3a2
:102a980000800123237010bd5005002000000000b5
:102aa8000000000008b5034b1bb103490348aff30e
:102ab800008008bd00000000540500200000000050
:020000040000fa
:102ac80008b500f0c7fb0c4b1b680021186800f024
:102ad800d1fb0a4b1b680021186800f0cbfbfff7fd
:102ae800c7fefff779f8fff78afa00f011f9fff748
:102af80095fefff7b5fc08bd980500207c06002070
:020000040000fa
:102b080010b44c68a40602460b4603d45df8044b87
:102b180000f0aab891f93410c0b2814203d05969c3
:102b28009c6aa14205d3114618465df8044bfff78d
:0e2b3800efbe4c1c5c610a705df8044b7047e8
:020000040000fa
:022b4600fee7a8
:020000040000fa
:102b4800c0b138b505460c4a92f82c200ab10020cd
:102b580038bd0c4600f05cf9074b9d61dc61002232
:102b68001a62012083f82c00da854ff0864384220c
:0c2b78009a75ede7002070472005002052
:020000040000fa
:102b840038b5436813f4807f0446154611d00369b1
:102b94009a4228bf1d465db12a46406900f0a4fa56
:102ba400636922692b44551b0022636125611a70f5
:0c2bb40038bddb06fcd400f0e5faf9e7c0
:020000040000fa
:102bc00030b50d4a002300bf12f8134024b902ebc0
:102bd00043035b78184630bd01680d78a54209bff4
:102be00002eb430301335b78013114bfdbb20160b8
:0c2bf0000a2be9d9eee700bfb831000065
:020000040000fa
:102bfc004ff4001c1ceb410f98bf1ceb430f11d87a
:102c0c0051ea030c50ea4c0c5cea020c0cd004d2d6
:102c1c0082428b4180410130704790429941804102
:0c2c2c0001307047002070470120704705
:020000040000fa
:102c38004ff086435b8b13f0070300d1704710b544
:102c4800084ce38500f0e4f84ff0864384221a75b7
:102c5800002384f82c30636a13b1a06a636a98472a
:082c680010bd00bf2005002093
:020000040000fa
:102c700007b54a68c0b2d2050b468df8070006d5e5
:102c80004a69511c5961107003b05df804fb0122c0
:102c90000df10701184600f077fa10b19df8070012
:082ca000f2e74ff0ff30efe70f
:020000040000fa
:102ca8004ff4001c1ceb410f98bf1ceb430f11d8cd
:102cb80051ea030c50ea4c0c5cea020c0ad004d22c
:102cc80082428b4180414042704790429941804105
:082cd8004042704700207047e4
:020000040000fa
:102ce0004ff4001c1ceb410f98bf1ceb430f11d895
:102cf00051ea030c50ea4c0c5cea020c0ad004d2f4
:102d00009042994180414042704782428b418041cc
:082d10004042704700207047ab
:020000040000fa
:102d18000a4b0b4a1a604ff622029a814ff440324e
:102d28005a601a46d369002bfcd1044a136843f051
:102d380002031360d369002bfcd1704700040043e1
:042d48000401104032
:020000040000fa
:102d4c004c6574277320676f0000000053656e7428
:102d5c00206d6573736167652025640d0a000000a2
:102d6c002563000041542b5244415441423a3032c5
:042d7c000d0000bf87
:020000040000fa
:102d800070b50a480a4d4ff6ff76016811b94368dd
:102d900003b970bd83684268334000f10c0455f8f4
:102da00023302046984704eb8000eee71816000019
:042db000f8310000f6
:020000040000fa
:102db4004ff4001c1ceb410f98bf1ceb430f0cd8c5
:102dc40050ea410c08bf52ea430c08d0904208bfb5
:102dd40099420cbf01200020704700207047012059
:022de400704736
:020000040000fa
:022de600fee706
:020000040000fa
:102de8000a4b5b8b13f0070f0ed0084b80221a7624
:102df80007225a831b7e13f0040f05d0034b9a6aef
:102e08001a7e12f0040ffad1704700bf0004004385
:020000040000fa
:102e18004ff086435b8b13f0070f10d04ff08643bb
:102e280080221a7607225a831b7e13f0040f06d0dd
:102e38004ff086439a6a1a7e12f0040ffad170474f
:020000040000fa
:102e480053b94ab9002908bf00281cbf4ff0ff3109
:102e58004ff0ff3000f08ebaadf1080c6de904ceea
:102e6800fef74ef8ddf804e0dde9022304b0704710
:020000040000fa
:102e7800064b1a680ab9064a1a60064a116809b95f
:102e8800054911601a68054b1a60704774050020df
:102e9800a806002070050020a80800206c05002066
:020000040000fa
:102ea800074b1a68074ba3fb02139b094ff47a716f
:102eb80001fb13231bb9044b4ff48042da617047be
:0c2ec80080050020d34d62100080004106
:020000040000fa
:102ed40000b553ec112b83b051ec100b8ded002b8e
:102ee400fef752fd9ded002b53ec122bfef768f913
:0c2ef40041ec100b03b05df804fb00bfc4
:020000040000fa
:102f000010b5084c23680bb9fff7b6ff06492268d5
:102f100009681044814234bf4ff0ff3220601046f0
:0c2f200010bd00bf6c05002070050020f3
:020000040000fa
:102f2c0070b5002902fb01f614460d4618bf144675
:102f3c0001463246184608bf002400f01ff98642ad
:0a2f4c0018bfb0fbf5f4204670bd7d
:020000040000fa
:102f56002de9f0410024804617460e462546bd421f
:102f660002db2046bde8f081726856f8081b404631
:0a2f760000f055f801350444f1e7be
:020000040000fa
:102f8000802910db812901dd83290cd113680733e7
:102f900023f0070303f108011160d3e90023c0e91e
:0a2fa0000023012070470020704755
:020000040000fa
:102faa002de9f0410024804617460e462546bd42cb
:102fba0002db2046bde8f081726856f8081b4046dd
:0a2fca0000f080f801350444f1e73f
:020000040000fa
:102fd40010b5084c2368196800f046f8002807db90
:102fe40023680a20196800f0abf9c00f404210bdf5
:082ff4000120fbe77c06002030
:020000040000fa
:102ffc0090f948305a1e1343426880f8483012f05a
:10300c0004031bbf42f010024260c0e90f334ff0c3
:08301c00ff3008bf18467047a1
:020000040000fa
:1030240068b972b170b50c460026012532462946ae
:103034002046fff7aff80028f8d0012070bd00202b
:04304400704770471a
:020000040000fa
:103048000fb407b5064b04aa1b6852f8041b18688e
:10305800019200f055f803b05df804eb04b0704736
:043068007c060020c2
:020000040000fa
:10306c0070b50e46054600f071f83346044602462c
:10307c0001212846fff754ff001b18bf4ff0ff300b
:02308c0070bd15
:020000040000fa
:02308e00fee75b
:020000040000fa
:1030900010b5054c22680ab9fff7eefe034b18681d
:1030a0002368c01a10bd00bf6c0500207005002009
:020000040000fa
:1030b00010b50023934206d113f0030018bf01207e
:0e30c00000eb930010bdc45ccc540133f2e76a
:020000040000fa
:1030ce0038b50d461446012801d0204638bd21469c
:0c30de002846fff7b0fc0028f9d0f6e708
:020000040000fa
:0230ea00fee7ff
:020000040000fa
:1030ec005ab110b40a44431e11f8014b03f8014fb6
:0c30fc009142f9d15df8044b7047704719
:020000040000fa
:1031080013b50446019201aafdf776fd636813f032
:0c311800100f18bf4ff0ff3002b010bdc8
:020000040000fa
:103124000eb403b503aa52f8041b019200f0ecf8a4
:0a31340002b05df804eb03b0704731
:020000040000fa
:02313e00fee7aa
:020000040000fa
:1031400053797374656d20696e697469616c697a0d
:0831500065642e0d000000bfb4
:020000040000fa
:1031580003783bb1034600bf13f8012f002afbd1c7
:08316800181a70471846704761
:020000040000fa
:1031700010b50446fff742ff28b9a368e268c4e926
:0831800005331344a36210bde6
:020000040000fa
:1031880010b4c46a1cb123465df8044b18470068a4
:083198005df8044bfff797bf3f
:020000040000fa
:1031a000044a136823b9106003610160012070476d
:0831b00000207047900500208b
:020000040000fa
:1031b80068076c094c836a9074a07ac0008068889c
:0631c80000846c8200810e
:020000040000fa
:1031ce000068002808b501da002008bdfff791fe5f
:0631de00431cfad1f8e7e2
:020000040000fa
:1031e400034b19681a4613685b1a8342fbd3704772
:0431f4008005002032
:020000040000fa
:1031f80049320000b1300000cd1c0000cd1c000099
:04320800cd1c0000d9
:020000040000fa
:10320c0032b1c9b20244034603f8011b9342fbd10d
:04321c00704700bf38
:020000040000fa
:1032200008b500f097f8024b1860586008bd00bf61
:0432300078050020fd
:020000040000fa
:10323400034600bf11f8012b184603f8012b002a9e
:04324400f8d1704706
:020000040000fa
:103248000a440023914201d10020704701f8013b54
:02325800f8e795
:020000040000fa
:02325a007047bb
:020000040000fa
:10325c00024b40f204521a80704700bf00400041fc
:020000040000fa
:10326c00024a136801331360704700bf80050020c9
:020000040000fa
:10327c0000294ff480630cbf02220022fff76ebbc3
:020000040000fa
:10328c0008b5fff7c7ff00f077f800f075f808bd38
:020000040000fa
:10329c00494e4600696e66004e414e006e616e00ee
:020000040000fa
:1032ac00494e4600696e66004e414e006e616e00de
:020000040000fa
:0e32bc0008b50020fff702fcfef7a0fafee7bf
:020000040000fa
:0e32ca00a0f14103192b98bf40f0200070477f
:020000040000fa
:0e32d800a0f16103192b98bf00f05f00704752
:020000040000fa
:0232e60070472f
:020000040000fa
:0c32e800014b187d704700bf200500203e
:020000040000fa
:0c32f400014b93f82c00704720050020cf
:020000040000fa
:0c330000014b1868704700bf80050020da
:020000040000fa
:0c330c0013460a466ff00041fff744b979
:020000040000fa
:0c33180010b50446fff78aff204610bde8
:020000040000fa
:0833240008b5fff70ffc08bd1e
:020000040000fa
:08332c0008b5fef7dffd08bd46
:020000040000fa
:0833340008b5fff7ddff08bd3d
:020000040000fa
:08333c0008b5fff7d3ff08bd3f
:020000040000fa
:0833440008b5fff7dffb08bd2f
:020000040000fa
:08334c00286e696c29002500c0
:020000040000fa
:0833540000487047000600204c
:020000040000fa
:08335c0083f00043fdf730bfd0
:020000040000fa
:07336400286e756c6c290056
:020000040000fa
:06336c000068fff7aebe91
:020000040000fa
:063372004ff0ff30704730
:020000040000fa
:04337800002070477a
:020000040000fa
:04337c00704700bfd7
:020000040000fa
:043380000020704772
:020000040000fa
:02338400704790
:020000040000fa
:0233860070478e
:020000040000fa
:0200000400807a
:044000003912003c35
:020000040000fa
:0200000400807a
:044004008000a82a66
:020000040000fa
:0200000400807a
:04400800ffffffffb8
:00000001FF
