:020000040000fa
:10000000f0ff0320a50d000013170000fb180000ef
:10001000d71a0000df1e00003f1f00000000000094
:100020000000000000000000000000008f1200002f
:100030008f190000000000008f1200002121000035
:100040008f1200008f1200008f1200008f1200002c
:100050008f1200008f1200008f1200008f1200001c
:100060008f1200008f1200008f1200008f1200000c
:100070008f1200008f1200008f1200008f120000fc
:100080008f1200008f1200008f1200008f120000ec
:100090008f1200008f1200008f1200008f120000dc
:1000a0008f1200008f1200008f1200008f120000cc
:1000b0008f1200008f1200008f1200008f120000bc
:1000c0008f1200008f1200008f1200008f120000ac
:1000d0008f1200008f1200008f1200008f1200009c
:1000e0008f1200008f1200000000000000000000ce
:1000f000000000008f1200008f1200008f1200001d
:100100008f1200008f1200008f1200008f1200006b
:100110008f1200008f1200008f1200008f1200005b
:100120008f1200008f1200008f1200008f1200004b
:100130008f1200008f1200005115000051150000b1
:1001400051150000511500008f1200008f120000a1
:100150008f1200008f12000000000000000000005d
:10016000000000000000000000000000000000008f
:1001700000000000000000008f1200008f1200003d
:100180008f1200008f1200008f1200008f120000eb
:10019000000000008f1200008f1200008f1200007c
:1001a0008f1200008f1200008f1200008f120000cb
:1001b0008f1200008f1200008f1200008f120000bb
:1001c0008f1200008f1200008f1200008f120000ab
:1001d0008f1200008f1200008f1200008f1200009b
:1001e0008f1200008f1200008f1200008f1200008b
:1001f0008f1200008f1200008f1200008f1200007b
:100200008f12000000000000000000008f120000ac
:100210008f1200008f1200008f1200008f1200005a
:100220008f1200008f1200008f1200008f1200004a
:100230008f1200008f1200008f1200008f1200003a
:100240008f1200008f1200008f1200008f1200002a
:100250008f1200008f1200008f1200008f1200001a
:020000040000fa
:10026000f8b500bff8bc08bc9e4670473d1a0000b8
:10027000f8b500bff8bc08bc9e467047191a0000cc
:020000040000fa
:08028000100300000100000062
:020000040000fa
:100288002de9f041aeb006461546059100270599bf
:100298000b78002b00f0fa8000244ff0ff33cde9f3
:1002a80009430eab0c9380230b940d930b5d0bb19c
:1002b800252b26d134b12246304601f045fc059b5a
:1002c80023440593059b1a78252a40f0d78003f12b
:1002d8000108cdf81480059803782b2b1ad025d85f
:1002e800202b1bd0232b1dd02a2b27d001f028fb35
:1002f8000b90059b1a78303a092a2ed801330593ba
:10030800f7e70134d2e7099b43f001030130099371
:100318000590e0e7099b43f00403f7e7099b43f0e6
:100328000803f3e7099b43f01003efe72d2bead00e
:10033800302bd9d1099b43f00203e7e72b681a1d3c
:100348001b682a600130002b05900b9305da099a87
:100358005b4282f0010209920b93099bda0744bfc2
:1003680023f002030993059b1a782e2a0dd1002247
:10037800581c0a9205905a782a2a25d102330593e7
:100388002b681a1d1b682a600a9305a801f0befb9a
:10039800059b0390187801f0e6fe6928039979d047
:1003a80032dc632800f0cb8019dc252800f0d980e6
:1003b800612853d000234ff0ff32cdf81480099301
:1003c8000b930a920093d4e001f0bafa0a90059bc5
:1003d8001a78303a092ad8d801330593f7e7642800
:1003e80058d06728e6dc2a4606a801f0c3fc002896
:1003f80000f0a180059b5a1c05921b7806aa09a942
:10040800304601f0e5fe38e0702873d015dc6e2820
:1004180000f08c806f28cdd12b46002206a800f072
:10042800dbfb002800f08780059b06aa013309a999
:100438003046059301f0cafe1fe075283ad07828a7
:1004480048d07328b6d1802975d1059b2a68013315
:100458000593131d2b60126800237de02a4606a829
:1004680001f088fc002866d0059b5a1c05921b7871
:1004780006aa09a9304601f0abfe04443c44a74251
:100488007add3e4b4f221a604ff0ff3738462eb0c8
:10049800bde8f0812b46012206a800f09dfb00284c
:1004a80049d0059b06aa013309a93046059301f0f6
:1004b8008dfee2e72b46002206a800f08dfb0028ff
:1004c80039d0059b06aa013309a93046059301f0e6
:1004d800f1f8d2e72b46002206a800f07dfb50b3c6
:1004e800059b5a1c05921b7806aa09a9304601f0fb
:1004f8006ffec2e72b460022f02106a800f06cfb35
:10050800c8b1059b01330593dde9062313430bd1dd
:100518001b4801f071fd099b009319490b9b02468a
:10052800304600f0c1fca8e77823dde72b463a19ee
:1005380006a800f07bfd059b013305939ee7802903
:10054800f9d1059b013305932b681a1d1b682a6096
:100558008df8183006aa012309a9304601f07ef863
:100568008be78029e7d1059b01330593099b00930d
:100578000b9b04490122d3e7274688e6d0040020d4
:08058800a4210000aa210000db
:020000040000fa
:100590002de9f04f099f154604468e461e46002b56
:1005a00040f0cc808a42b2fa82fc4cd9bcf1000ff8
:1005b0000bd0ccf1200801fa0cfe20fa08f802fa60
:1005c0000cf548ea0e0e00fa0cf44fea15491ffa32
:1005d00085f8befbf9fa210c09fb1ae30afb08fbbc
:1005e00041ea03439b452ad9eb180af1ff3004d2b4
:1005f0009b4502d9aaf102002b44a3eb0b03a4b242
:10060000b3fbf9f209fb123302fb08f844ea034496
:10061000a04516d92c1902f1ff3303d2a04501d908
:10062000931e2c44a4eb080443ea004027b124faab
:100630000cf400233c607b603146bde8f08f5046ef
:10064000dbe71346eee702b9ffdebcf1000f2ed167
:100650008b1a01264fea154eaab2b3fbfef8210c05
:100660000efb183308fb02f941ea0343994561d9af
:10067000eb1808f1ff3004d2994502d9a8f1020025
:100680002b44a3eb0903a4b2b3fbfef10efb113321
:100690004a4344ea0344a2424ed92c1901f1ff33e4
:1006a00003d2a24201d98b1e2c44a41abce7ccf180
:1006b000200e02fa0cf521fa0ef901fa0cf320fad9
:1006c0000efe4eea03034fea154800fa0cf4b9fb9c
:1006d000f8f11ffa85fe08fb1192180c01fb0ef6cb
:1006e00040ea0242964221d9aa1801f1ff3003d212
:1006f000964201d9881e2a44921b9bb2b2fbf8f99c
:1007000008fb192209fb0efe43ea02439e450fd95e
:10071000eb1809f1ff3604d29e4502d9a9f1020671
:100720002b44a3eb0e0346ea004693e70846e3e7b3
:100730004e46f6e74046a4e70b46b6e78b4206d99d
:10074000002f7ed00026c7e90001304674e7b3fad7
:1007500083fcbcf1000f0fd18b4201d3824209d838
:10076000841a61eb030e0120002f6dd0c7e9004e03
:10077000002661e76046f7e7ccf1200e03fa0cf3a0
:1007800022fa0ef521fa0ef41d4301fa0cf320fab9
:100790000ef10b434fea154a00fa0cf6b4fbfaf9d6
:1007a0001ffa85f80afb19401c0c09fb08f144ea02
:1007b0000044a14202fa0cf23fd92c1909f1ff3092
:1007c00004d2a14202d9a9f102002c44641a9bb2be
:1007d000b4fbfaf90afb194409fb08f843ea04419f
:1007e00088452cd9691809f1ff3304d2884502d90c
:1007f000a9f10203294443ea0040a1eb0801a0fb50
:1008000002894945c2464c4602d306d1464504d228
:10081000b8eb020a69eb05040138afb1b6eb0a0385
:1008200061eb040606fa0efe23fa0cf34eea03030c
:1008300026fa0cf6c7e900369ae74846c6e74b4663
:0c084000d9e73e463846f7e63e46f5e6ae
:020000040000fa
:10084c00900400201c00000000000000c0040020e8
:10085c000800000000000000c40500200a00000091
:10086c000100000041542b444153534c0d00000037
:10087c00d0050020070000000100000041542b456a
:10088c004e0d0000d80500200500000001000000fe
:10089c0041545a0d0000000000000020060000002a
:1008ac000000000060040020300000000000000088
:1008bc00c804002004000000000000001004002008
:1008cc005000000000000000d80400206c00000064
:1008dc0001000000e4040020e0040020e4040020f7
:1008ec0000000000250000001000002000040000a3
:1008fc0000000000000000000000000000000000ec
:10090c0000000000000000000000000000000000db
:10091c00dd210000000000000000000000000000cd
:10092c000000000091140000000000000000000016
:10093c0000000000000000000000000000000000ab
:10094c00080000200804000000000000a40500209e
:10095c002000000001000000010000000300000066
:10096c00000000000000000000000000000000007b
:10097c0000000000b8040020b804002008000000ab
:10098c0000000000cc040020080000000000000063
:10099c004405002060000000010000000100000080
:1009ac000300000000000000000000000000000038
:1009bc00000000000000000009160000000000000c
:1009cc000000000000000000c5210000eb21000029
:1009dc00000000000000000000000000000000000b
:1009ec0000000000000000000000000000000000fb
:1009fc00000000000000000000000000e0050020e6
:100a0c00040000000100000001000000d4040020dc
:100a1c000400000000000000ac0400200c000000ea
:100a2c000000000000000000000000006666666622
:020000040000fa
:100a3c00334b00221a7403f50063324a9a621a4649
:100a4c00536813f0100ffbd12f4b4222c3f88420b4
:100a5c001a4600bfd2f8843013f0400ffad02b4b5b
:100a6c0000229a6377225a631a46d36b13f0040f51
:100a7c00fbd1264b022283f830201a46d36b13f09d
:100a8c00020ffbd1214a136c03f00303032bfad1a1
:100a9c001f4b01225a711a46d37813f0010ffbd069
:100aac00194b1c4a1a621a46536813f0040ffbd1f7
:100abc00154b194a5a621a46536813f0080ffbd1aa
:100acc00114b4122c3f808211a4600bfd2f8083155
:100adc0013f0400ffad00c4b4122c3f80c211a46ec
:100aec00d2f80c3113f0400ffad0094b6ff07f4263
:100afc001a6140f2ff725a6103221a62704700bffa
:100b0c000014004006013000001c004000100040a2
:0c0b1c0000080040060101000701020073
:020000040000fa
:100b280010b5b2b0c821684600f0befa002843d01c
:100b380004469df800300a2b20d032ab1c44002319
:100b480004f8c83c1d49684600f03efcf0b13d2160
:100b5800684601f0c3fa044650b3013444b3184957
:100b6800204601f085faf0b9164b1a6801321a606e
:100b78001a686946144801f08bf91de002460df128
:100b88000101684600f022ff013cd6e70f4968469c
:100b980000f01afc60b12c21684601f039fa0446cd
:100ba80030b10134dae72146094801f071f903e070
:100bb8006946084801f06cf932b010bd2c0e0000ef
:100bc8003c0e0000c4040020440e0000340e000057
:080bd800700e0000900e0000f9
:020000040000fa
:100be000882910b536d012dc812943d003dc802956
:100bf00040d0002010bd82290ed08429f9d1196877
:100c000002b30a1d1a60b1f90020d3171ee0a02913
:100c10002bd00bdc9029ecd11968073121f00701aa
:100c200001f108021a60d1e900230fe0c02901d0c8
:100c3000f029ded11a68111d1960136803600023c2
:100c4000436005e00a1d1a600a880023c0e90023fa
:100c50000120cfe7196822b10a1d1a6091f900201e
:100c6000d3e70a1d1a600a78efe71a68111d1960a8
:100c70001268cae719681ab10a1d1a600a68c4e73f
:0c0c80000c1d1c600b68c0e90032e1e7ad
:020000040000fa
:100c8c0000283bd070b406461f4b1b7d002b37d180
:100c9c001d4b1860596001221a755d684ff0864330
:100cac001b7e13f0010f1bd0e5b10078e0b1344688
:100cbc0000224ff086414b6803f00703012b12bf53
:100ccc00886236f812308b6201320b7e13f0010f02
:100cdc000dd095420ad014f8010f0028ebd106e094
:100cec00002204e02a4602e0002200e02a46064bdd
:100cfc009a6001204ff08643987502e000207047ff
:0c0d0c00002070bc704700bf6004002095
:020000040000fa
:100d18002de9ff41836946690093f61acde901611f
:100d280004461746039216444ff002086d464246a1
:100d38002946206801f05df8b04209d1d4e90232b1
:100d4800c4e905331a44a262384604b0bde8f0810c
:100d580000280dda6268002342f01002b8f1020f91
:100d6800a362c4e90533626015d06b68ff1aebe72c
:100d78006b68984288bf0835a6eb000688bfc01a82
:100d88002b6803442b606b68a3eb000088bf08f155
:0a0d9800ff386860cbe71f46d6e77e
:020000040000fa
:020da200704798
:020000040000fa
:100da40008b5194b9847194b9847eff3108172b661
:100db400174ad2f8883043f47003c2f88830bff37e
:100dc4004f8fbff36f8f01b962b6124a936823f055
:100dd400010393601346da6812f0010ffbd10d4b47
:100de40024225a6001229a6000f020ff0a4b23f06b
:100df4007f03074a9360094b9847094b9847094b6f
:100e0400984701f0abf9fee7bb200000bb200000cf
:100e140000ed00e00060004100000000ad1500009e
:080e2400bb200000bb20000010
:020000040000fa
:100e2c0055434153543a00005241573a00000000d8
:100e3c0068656c6c6f0d0a0056616c6964206d6599
:100e4c0073736167652072656365697665642120db
:100e5c003a2025730d0a436f756e743a2025750d73
:100e6c000a000000496e76616c6964206d657373cd
:100e7c0061676520636f6e74656e743a2025730d1f
:100e8c000a000000496e76616c6964206d657373ad
:100e9c0061676520666f726d61743a2025730d0a67
:040eac00000000bf83
:020000040000fa
:100eb0002de9ff471d460c9b13f0010906468a46a3
:100ec000144601d195420bd822465146304600f0d7
:100ed0003ffea54204d82546284604b0bde8f08769
:100ee0002f1b102f3a464ff0200128bf10226846d2
:100ef000b84601f0edf800bfb8f10f0f11d83b096b
:100f00006ff00f0202fb03726946304600f020fecc
:100f1000b9f1000fe0d122465146304600f018feec
:100f2000dae710226946304600f012fea8f11008f8
:040f3000e2e700bf35
:020000040000fa
:100f3400f0b51f4c2568a446002d36d00022294662
:100f440016461346d1f800e00f6986450ad132b13e
:100f5400176101f110031846f0bd3946f2e7ccf8e9
:100f64000070f6e705d9ebb11c68a6453cbf1646f0
:100f74000b460a46002ff0d1002becd019461f690e
:100f840051f8102b121a102a05d918600844103a87
:100f94000761026007469d420cbfccf800703761c0
:100fa4000b46d8e716460b46e3e72b46d3e700bfcc
:040fb400d404002041
:020000040000fa
:100fb800002837d0f8b5064615460f4600f04efe15
:100fc800781e2ad00022184c237e13f0040f12d169
:100fd800002df9d0144b5b6803f00703012b4ff089
:100fe800000314bfb35426f812300023b354d01aa8
:100ff80018bf0120f8bd638b13f0070f0cd163688d
:1010080003f00703012ba36a14bfb35426f8123068
:1010180001328242d8d100e01046874214bf002036
:0c1028000120e7e70020704700040043af
:020000040000fa
:10103400842910b523d00cdc812903d0822913d054
:1010440080290bd119680c1d1c600b6803601a60a1
:1010540013e0902921d003dc882917d0002010bd8b
:10106400a029efd0c029ece719680c1d1c600b689f
:101074000360d1171046c3e900010120efe71968a6
:101084000c1d1c600b6803601a80f6e719680c1dc0
:101094001c600b6803601a70efe719680c1d1c6074
:0c10a40009680160d317c1e90023e6e7ea
:020000040000fa
:1010b0002de9f04182b01a4b1c68e0b18046d1b1f5
:1010c0004f1e18bf00261cd001210df1070000f0b3
:1010d00003fda8b1124d00bf01f056f8b0b12b6866
:1010e0001b1bb3f5fa7ff7d3002308f80630304610
:1010f00002b0bde8f0810b4800f094fe0026f6e750
:101100003746002308f807303e46f0e79df80730e1
:1011100008f806300136024b1c68be42d4d1f0e715
:08112000c0040020401f000084
:020000040000fa
:101128001c4b1b7d002b34d010b51a4a93685168ac
:101138004ff08642127e12f0010f16d0994214d950
:101148004ff0864113484a6802f00702012a0268f4
:1011580014bfd25c32f813208a62013344680a7ed5
:1011680012f0010f01d09c42edd80a4a93605268f0
:101178009a420dd8074b00221a755a604ff08642e2
:1011880001211175db681bb1024b1869db689847b0
:0811980010bd70476004002047
:020000040000fa
:1011a0002de9f84f04460c9f6668d4f80cb024690a
:1011b00010463a68013c002502f0020a0b9a0bf82f
:1011c0000450002e1946b8bf0126012390464fea6d
:1011d000e279002c03dcd3b12046bde8f88f50ea59
:1011e000010209d1721b002a06dc0a9a521b002a4e
:1011f000f1ddbaf1000feed042464b4600f062fd41
:10120000013c134630320bf804200135e1e73b681e
:0812100023f010033b60dfe74f
:020000040000fa
:10121800f8b5846a05460f46164654b1ab6a6a6942
:101228009b1ab3420bd2324639462846fff770fd67
:10123800f8bd00f0f9fe0028f0d02046f8e7002eaf
:10124800f1d095f93430002b1bdbdbb23446621e3b
:10125800b95c994212d1224639462846fff758fd13
:10126800a042e5d32744341b22463946686900f07a
:101278008dfe6b691c446c613046d9e71446002a20
:06128800e5d13446f0e759
:020000040000fa
:02128e00fee779
:020000040000fa
:10129000194bda6822f4e0621204120c42f0bf62c9
:1012a00042f40032da60bff35f8f62b6134ae02186
:1012b00082f83e134ff08040506082f83f134ff0a9
:1012c0000040506082f840130120906082f8411382
:1012d000022191605a6a42f480225a625a6942f0ad
:1012e00010025a615a6a42f400325a625a6a42f44f
:1012f00080325a62704700bf00ed00e000e100e07c
:020000040000fa
:1013000008b500f05bfa104c062322460f4910483e
:1013100000f07cfa062322460e490f4800f076fac8
:10132000062322460d490e4800f070fa0d4800f0e1
:1013300079fd4ff4fa7000f0d3fd30bffff7f4fbf6
:1013400000f0f0fcf9e700bf0000002014170000d7
:10135000d805002020170000c40500203c1700001d
:08136000d00500204c1700002d
:020000040000fa
:1013680008b5184b93f82c30d3b1164bda691b6ac1
:10137800934215d2134b986a4ff08642916a1b6ac2
:10138800526802f00702012a0e4a926914bfd1542a
:1013980022f8131001330b4a1362d2699a4200d023
:1013a80008bd084b002283f82c20da614ff08642f2
:1013b800842111755b6a002bf2d0024b5b6a984757
:0813c800eee700bf6004002005
:020000040000fa
:1013d00091f800c0f0b4bcf1000f24d00678f6b14b
:1013e000b4450346074606d04678c6b1581cb445f6
:1013f00003460746f8d14a7872b146789642f4d14e
:10140000013004464a1c03e014f8015f9d42e7d115
:1014100012f8013f002bf7d13846f0bc7047374631
:101420003846f0bc704707463846f0bc704700bfee
:020000040000fa
:10143000c9b2f8b50446f1b103469a0718461ed161
:101440004ff001354d431e4656f8044b84ea05071c
:10145000a4f10132a7f1013022ea040220ea0700d8
:10146000024312f0803f11d0184613f8012b2ab125
:101470008a42f9d102e000f0c3fd2044f8bd13f820
:10148000012b002afad08a42d7d1f7e73346dae7b0
:020000040000fa
:101490007fb5c36800911546002b18bf013a019231
:1014a00082680446cde902230e460222694600689e
:1014b00000f08efc002808dc00f0180383f008021e
:1014c00063681343636005460fe0019a8242fad2d3
:1014d000a368e363801ae268184420642ab15a1ca6
:1014e000e2632e441b7806f8013c284604b070bd28
:020000040000fa
:1014f00037b5154d2b68044673b100f001fd01901e
:1015000001a800f0cffd0f30019920f00f0000f08e
:10151000a7fd60b100232b60002c08bf01240f340d
:1015200034f00f0405d1094b0c221a60204603b099
:1015300030bd042c38bf04242046fff7fbfc0028f4
:10154000f5d040f8044cf2e7e0050020d00400207c
:020000040000fa
:1015500008b54ff086439b7d0bb34ff08642137e58
:10156000dbb2927d12f0800f1ad14ff08642137ecb
:10157000dbb2927d12f0010f04d013f0010f01d005
:10158000fff7d2fd4ff08642137edbb2927d12f060
:10159000040f04d013f0040f01d0fff7e5fe08bddf
:0c15a00013f0800fe1d000f0f1fadee75c
:020000040000fa
:1015ac000e4a38b5002313600d4a0e4c13600e4ad8
:1015bc000e4d13600e4a13600e4a13600e4a5362ae
:1015cc0013610123936000f0bdfd00f0a2fdac425d
:1015dc0000d338bd54f8043b9847f8e7cc040020fe
:1015ec001c0400206c020000180400207002000093
:0c15fc0010040020140400202004002033
:020000040000fa
:1016080038b50d46044608b9002038bd43689b0626
:1016180007d5d0e905239a4216d80023c4e9053333
:10162800a362d4e90f13994204d20122c91a20688f
:1016380000f0d4fd0023c4e90f33002de4d0206866
:10164800bde8384000f0bdbd0022c36a1146984786
:0c1658006369002be1d14ff0ff30d6e7b2
:020000040000fa
:101664002de9ff41134dd1f80080af88adf80c701f
:1016740006462868029002aca8798df80e00002a6c
:1016840018bf1446d1e901571a461bb9204600f089
:10169400b5fc0246002d02dbaa4228bf2a46cdf83b
:1016a40000803b4621463046fff700fc04b0bde80d
:0816b400f08100bfbc21000021
:020000040000fa
:1016bc00f0b50c4649682368a668e76887b000292e
:1016cc000593a4bf23f00203059305ab02930a23f1
:1016dc00cde900630546d2e900232046fff75afd09
:1016ec002269059b0093013a3346121a3918284691
:1016fc00fff7d8fb6b68db0503d563689842b8bf6e
:06170c00184607b0f0bd15
:020000040000fa
:02171200fee7f0
:020000040000fa
:101714005265737461727465640000004469736196
:1017240073736f6369617465642066726f6d206e94
:101734006574776f726b73004a6f696e6564206eaf
:101744006574776f726b00004c697374656e696eb3
:101754006720666f72206d657373616765732e2ee3
:041764002e0d000046
:020000040000fa
:101768004ff08643114a1a604ff6b1629a814ff4de
:1017780040325a601a46d369002bfcd14ff086429a
:10178800136843f002031360d369002bfcd1084ba4
:1017980000229a61da611a6283f82c205a621a6070
:1017a8005a609a601a75da60da8570470401104049
:0417b80060040020a9
:020000040000fa
:1017bc0008b50e4b4ff480429a609a610c4b022292
:1017cc005a700c4b4bf67f325a600b4ae02182f870
:1017dc00231000229a6007221a604ff47a7000f0ee
:1017ec0079fb064800f018fb08bd00bf00800041e3
:1017fc000004004010e000e000ed00e0e81f0000f5
:020000040000fa
:10180c00f8b506460f4614461d461a4600212046da
:10181c0000f058fc304600f0edfb0146304600f07d
:10182c00b3fc00bf00f0b4fc0028fbd14ff4fa70fd
:10183c0000f050fb29462046fff734fc23460246b5
:10184c003946024800f022fbf8bd00bf5c1f0000c7
:020000040000fa
:10185c00114b012283f8cc2083f8cd2083f8d020c3
:10186c0083f8d120222283f8b62083f8b8200422f2
:10187c009a60802199601021c3f884109a61074bfb
:10188c00013bfdd1044b80225a61044b013bfdd13d
:10189c00014b80229a61704700800041a0860100b4
:020000040000fa
:1018ac0013b5836a8df80710044673b16369a26a95
:1018bc00934212d3e36a01220df1070120469847a7
:1018cc00012806d19df8070005e000f0abfb0028cd
:1018dc00ecd04ff0ff3002b010bd9df8070094f92a
:0e18ec0034209042e6d05a1c62611870f3e777
:020000040000fa
:0218fa00fee707
:020000040000fa
:1018fc00022a70b5044616461d461ad043689b064c
:10190c0017d441b9002d08bf4ff4806505f10800cc
:10191c00fff7e8fd01466368012e43f02003636086
:10192c00c4e9021514bfff230a2384f83430024b98
:0c193c00e362002070bd00bf1912000023
:020000040000fa
:1019480010b50278202a034600f10100f9d0a2f16f
:1019580009010429f5d92b2a07d02d2a11d10121f3
:101968000133013b00200a2403e00021f8e760432b
:10197800801a13f8012f303a092af8d901b94042e0
:0619880010bd0021ede797
:020000040000fa
:02198e00fee772
:020000040000fa
:10199000d0b110b40446c9b1084421460c4a64428f
:1019a000137e13f0010ffbd0536803f00703012be4
:1019b00014bf0b7834f81130936201318142efd1ba
:1019c00001205df8044b7047002070470120f8e7c4
:0419d00000040043cc
:020000040000fa
:1019d400884210b40fd98b1883420cd984183ab1b9
:1019e400224600bf13f8014d02f8014d9942f9d186
:1019f4005df8044b7047002afad00a44431e00bf26
:101a040011f8014b03f8014f8a42f9d15df8044bf8
:041a1400704700bf58
:020000040000fa
:101a180010b5054c227832b9044b13b10448aff322
:101a280000800123237010bd9004002000000000f6
:101a38000000000008b5034b1bb103490348aff38e
:101a4800008008bd00000000940400200000000091
:020000040000fa
:101a580008b500f069fb0c4b1b680021186800f002
:101a68006bfb0a4b1b680021186800f065fbfff749
:101a7800f1fefef7dffffff790f900f0bbf8fff784
:101a88006ffefff701fc08bddc040020c005002044
:020000040000fa
:101a980010b44c68a40602460b4603d45df8044b08
:101aa80000f08cb891f93410c0b2814203d0596962
:101ab8009c6aa14205d3114618465df8044bfff70e
:0e1ac800f1be4c1c5c610a705df8044b704767
:020000040000fa
:021ad600fee729
:020000040000fa
:101ad800c0b138b505460c4a92f82c200ab100204e
:101ae80038bd0c4600f0d2f8074b9d61dc6100223e
:101af8001a62012083f82c00da854ff0864384228d
:0c1b08009a75ede7002070476004002093
:020000040000fa
:101b140030b50d4a002300bf12f8134024b902eb7c
:101b240043035b78184630bd01680d78a54209bfb0
:101b340002eb430301335b78013114bfdbb2016074
:0c1b44000a2be9d9eee700bf8e2000005c
:020000040000fa
:101b500038b5436813f4807f0446154611d00369f5
:101b60009a4228bf1d465db12a46406900f012fa2c
:101b7000636922692b44551b0022636125611a7039
:0c1b800038bddb06fcd400f05ffaf9e78a
:020000040000fa
:101b8c004ff086435b8b13f0070300d1704710b501
:101b9c00084ce38500f078f84ff0864384221a75e0
:101bac00002384f82c30636a13b1a06a636a9847e7
:081bbc0010bd00bf6004002011
:020000040000fa
:101bc40007b54a68c0b2d2050b468df8070006d5a2
:101bd4004a69511c5961107003b05df804fb01227d
:101be4000df10701184600f02dfa10b19df8070019
:081bf400f2e74ff0ff30efe7cc
:020000040000fa
:101bfc000a4b0b4a1a604ff622029a814ff440327c
:101c0c005a601a46d369002bfcd1044a136843f07e
:101c1c0002031360d369002bfcd17047000400430e
:041c2c00040110405f
:020000040000fa
:101c300070b50a480a4d4ff6ff76016811b943683e
:101c400003b970bd83684268334000f10c0455f855
:101c500023302046984704eb8000eee74c08000054
:041c6000bc200000a4
:020000040000fa
:101c64000a4b5b8b13f0070f0ed0084b80221a76b9
:101c740007225a831b7e13f0040f05d0034b9a6a84
:101c84001a7e12f0040ffad1704700bf000400431b
:020000040000fa
:101c94004ff086435b8b13f0070f10d04ff0864351
:101ca40080221a7607225a831b7e13f0040f06d073
:101cb4004ff086439a6a1a7e12f0040ffad17047e5
:020000040000fa
:101cc40053b94ab9002908bf00281cbf4ff0ff319f
:101cd4004ff0ff3000f082baadf1080c6de904ce8c
:101ce400fef754fcddf804e0dde9022304b070479c
:020000040000fa
:101cf400064b1a680ab9064a1a60064a116809b9f5
:101d0400054911601a68054b1a607047b404002035
:101d1400e8050020b0040020e8070020ac040020ff
:020000040000fa
:101d2400074b1a68074ba3fb02139b094ff47a7104
:101d340001fb13231bb9044b4ff48042da61704753
:0c1d4400c0040020d34d6210008000415c
:020000040000fa
:101d500010b5084c23680bb9fff7ccff0649226881
:101d600009681044814234bf4ff0ff3220601046b2
:0c1d700010bd00bfac040020b004002037
:020000040000fa
:101d7c00802910db812901dd83290cd113680733fd
:101d8c0023f0070303f108011160d3e90023c0e934
:0a1d9c00002301207047002070476b
:020000040000fa
:101da60070b5002902fb01f614460d4618bf14460d
:101db60001463246184608bf002400f042f9864222
:0a1dc60018bfb0fbf5f4204670bd15
:020000040000fa
:101dd0002de9f0410024804617460e462546bd42b7
:101de00002db2046bde8f081726856f8081b4046c9
:0a1df00000f040f801350444f1e76b
:020000040000fa
:101dfa002de9f0410024804617460e462546bd428d
:101e0a0002db2046bde8f081726856f8081b40469e
:0a1e1a0000f0adf801350444f1e7d3
:020000040000fa
:101e240010b5084c2368196800f046f8002807db51
:101e340023680a20196800f0b7f9c00f404210bdaa
:081e44000120fbe7c0050020ae
:020000040000fa
:101e4c0090f948305a1e1343426880f8483012f01b
:101e5c0004031bbf42f010024260c0e90f334ff085
:081e6c00ff3008bf1846704763
:020000040000fa
:101e740068b972b170b50c46002601253246294670
:101e84002046fff797f80028f8d0012070bd002005
:041e940070477047dc
:020000040000fa
:101e98000fb407b5064b04aa1b6852f8041b186850
:101ea800019200f08ff803b05df804eb04b07047be
:041eb800c005002041
:020000040000fa
:101ebc0070b50e46054600f09df8334604460246c2
:101ecc0001212846fff769ff001b18bf4ff0ff30b8
:021edc0070bdd7
:020000040000fa
:021ede00fee71d
:020000040000fa
:101ee000064b1a681b689b1a984205d9034930bff4
:101ef0000b689b1a8342fad3704700bfc0040020ce
:020000040000fa
:101f000010b5054c22680ab9fff7f4fe034b1868b8
:101f10002368c01a10bd00bfac040020b00400202c
:020000040000fa
:101f200010b50023934206d113f0030018bf01201f
:0e1f300000eb930010bdc45ccc540133f2e70b
:020000040000fa
:021f3e00fee7bc
:020000040000fa
:101f4000496e76616c696420627566666572206fa1
:0c1f5000722073697a652e0d000000bf3e
:020000040000fa
:101f5c0025733a2052656164202575206279746579
:0c1f6c00733a0d0a25730d0a000000bf37
:020000040000fa
:101f780038b50d461446012801d0204638bd214603
:0c1f88002846fff701fd0028f9d0f6e71d
:020000040000fa
:101f94005ab110b40a44431e11f8014b03f8014f1f
:0c1fa4009142f9d15df8044b7047704782
:020000040000fa
:101fb00010b5c9b20244824201d1002304e0013ac3
:0c1fc000134614788c42f6d1184610bd70
:020000040000fa
:101fcc0013b50446019201aafef758f9636813f0a1
:0c1fdc00100f18bf4ff0ff3002b010bd16
:020000040000fa
:101fe80053797374656d20696e697469616c697a77
:081ff80065642e0d000000bf1e
:020000040000fa
:1020000003783bb1034600bf13f8012f002afbd130
:08201000181a704718467047ca
:020000040000fa
:1020180038b504460d46fff7efff2946421c204617
:08202800bde83840fff7c0bf1e
:020000040000fa
:1020300010b50446fff70aff28b9a368e268c4e9af
:0820400005331344a36210bd37
:020000040000fa
:1020480010b4c46a1cb123465df8044b18470068f5
:082058005df8044bfff78cbf9b
:020000040000fa
:10206000044a136823b910600361016001207047be
:0820700000207047d404002099
:020000040000fa
:1020780010b50023c25ccc5ca24202d10133002a15
:06208800f8d1101b10bd91
:020000040000fa
:10208e0068076c094c836a9074a07ac000806888d7
:06209e0000846c82008149
:020000040000fa
:1020a4000068002808b501da002008bdfff74efedd
:0620b400431cfad1f8e71d
:020000040000fa
:0220ba0070476d
:020000040000fa
:1020bc000d210000211f0000d1210000d1210000c2
:0420cc00d12100001e
:020000040000fa
:1020d00032b1c9b20244034603f8011b9342fbd15b
:0420e000704700bf86
:020000040000fa
:1020e40010b50c46fff7a2f90378e4b2a34218bf77
:0420f400002010bdfb
:020000040000fa
:1020f80008b500f05bf8024b1860586008bd00bfd7
:04210800b8040020f7
:020000040000fa
:10210c000a440023914201d10020704701f8013ba1
:02211c00f8e7e2
:020000040000fa
:02211e00704708
:020000040000fa
:10212000024a136801331360704700bfc0040020e7
:020000040000fa
:10213000024b40f204521a80704700bf0040004139
:020000040000fa
:1021400000294ff480630cbf02220022fff7d6bba8
:020000040000fa
:1021500008b5fff7d1ff00f047f800f045f808bddb
:020000040000fa
:0e21600008b50020fff778fcfff7caf8fee78d
:020000040000fa
:0e216e00a0f14103192b98bf40f020007047ec
:020000040000fa
:0c217c00014b187d704700bf600400207c
:020000040000fa
:0c218800014b93f82c007047600400200d
:020000040000fa
:0821940008b5fef779fd08bd56
:020000040000fa
:08219c0008b5fff7edff08bdd7
:020000040000fa
:0821a400286e696c290025007a
:020000040000fa
:0821ac0008b5fff773fc08bd44
:020000040000fa
:0821b4000048704744050020bb
:020000040000fa
:0721bc00286e756c6c290010
:020000040000fa
:0621c4000068fff7d7be22
:020000040000fa
:0621ca004ff0ff307047ea
:020000040000fa
:0421d0000020704734
:020000040000fa
:0421d4000020704730
:020000040000fa
:0421d800002070472c
:020000040000fa
:0421dc000020704728
:020000040000fa
:0421e000704700bf85
:020000040000fa
:0421e4000020704720
:020000040000fa
:0221e80070473e
:020000040000fa
:0221ea0070473c
:020000040000fa
:0200000400807a
:044000003912003c35
:020000040000fa
:0200000400807a
:044004008000a82a66
:020000040000fa
:0200000400807a
:04400800ffffffffb8
:00000001FF
